{
  "_format": "hh-sol-artifact-1",
  "contractName": "MockMailbox",
  "sourceName": "contracts/MockMailbox.sol",
  "abi": [
    {
      "inputs": [
        {
          "internalType": "uint32",
          "name": "_domain",
          "type": "uint32"
        }
      ],
      "stateMutability": "nonpayable",
      "type": "constructor"
    },
    {
      "inputs": [
        {
          "internalType": "uint32",
          "name": "_origin",
          "type": "uint32"
        },
        {
          "internalType": "address",
          "name": "_sender",
          "type": "address"
        },
        {
          "internalType": "address",
          "name": "_recipient",
          "type": "address"
        },
        {
          "internalType": "bytes",
          "name": "_body",
          "type": "bytes"
        }
      ],
      "name": "addInboundMessage",
      "outputs": [],
      "stateMutability": "nonpayable",
      "type": "function"
    },
    {
      "inputs": [
        {
          "internalType": "uint32",
          "name": "_domain",
          "type": "uint32"
        },
        {
          "internalType": "contract MockMailbox",
          "name": "_mailbox",
          "type": "address"
        }
      ],
      "name": "addRemoteMailbox",
      "outputs": [],
      "stateMutability": "nonpayable",
      "type": "function"
    },
    {
      "inputs": [
        {
          "internalType": "uint32",
          "name": "_destinationDomain",
          "type": "uint32"
        },
        {
          "internalType": "bytes32",
          "name": "_recipientAddress",
          "type": "bytes32"
        },
        {
          "internalType": "bytes",
          "name": "_messageBody",
          "type": "bytes"
        }
      ],
      "name": "dispatch",
      "outputs": [
        {
          "internalType": "bytes32",
          "name": "",
          "type": "bytes32"
        }
      ],
      "stateMutability": "nonpayable",
      "type": "function"
    },
    {
      "inputs": [],
      "name": "domain",
      "outputs": [
        {
          "internalType": "uint32",
          "name": "",
          "type": "uint32"
        }
      ],
      "stateMutability": "view",
      "type": "function"
    },
    {
      "inputs": [
        {
          "internalType": "uint256",
          "name": "",
          "type": "uint256"
        }
      ],
      "name": "inboundMessages",
      "outputs": [
        {
          "internalType": "uint32",
          "name": "origin",
          "type": "uint32"
        },
        {
          "internalType": "address",
          "name": "sender",
          "type": "address"
        },
        {
          "internalType": "address",
          "name": "recipient",
          "type": "address"
        },
        {
          "internalType": "bytes",
          "name": "body",
          "type": "bytes"
        }
      ],
      "stateMutability": "view",
      "type": "function"
    },
    {
      "inputs": [],
      "name": "inboundProcessedNonce",
      "outputs": [
        {
          "internalType": "uint256",
          "name": "",
          "type": "uint256"
        }
      ],
      "stateMutability": "view",
      "type": "function"
    },
    {
      "inputs": [],
      "name": "inboundUnprocessedNonce",
      "outputs": [
        {
          "internalType": "uint256",
          "name": "",
          "type": "uint256"
        }
      ],
      "stateMutability": "view",
      "type": "function"
    },
    {
      "inputs": [],
      "name": "outboundNonce",
      "outputs": [
        {
          "internalType": "uint256",
          "name": "",
          "type": "uint256"
        }
      ],
      "stateMutability": "view",
      "type": "function"
    },
    {
      "inputs": [],
      "name": "processNextInboundMessage",
      "outputs": [],
      "stateMutability": "nonpayable",
      "type": "function"
    },
    {
      "inputs": [
        {
          "internalType": "uint32",
          "name": "",
          "type": "uint32"
        }
      ],
      "name": "remoteMailboxes",
      "outputs": [
        {
          "internalType": "contract MockMailbox",
          "name": "",
          "type": "address"
        }
      ],
      "stateMutability": "view",
      "type": "function"
    },
    {
      "inputs": [],
      "name": "version",
      "outputs": [
        {
          "internalType": "uint32",
          "name": "",
          "type": "uint32"
        }
      ],
      "stateMutability": "view",
      "type": "function"
    }
  ],
  "bytecode": "0x60c0604052600063ffffffff1660a09063ffffffff1681525060008055600060015560006002553480156200003357600080fd5b50604051620014b2380380620014b28339818101604052810190620000599190620000ba565b8063ffffffff1660808163ffffffff168152505050620000ec565b600080fd5b600063ffffffff82169050919050565b620000948162000079565b8114620000a057600080fd5b50565b600081519050620000b48162000089565b92915050565b600060208284031215620000d357620000d262000074565b5b6000620000e384828501620000a3565b91505092915050565b60805160a0516113996200011960003960006104450152600081816107a5015261089f01526113996000f3fe608060405234801561001057600080fd5b50600436106100a95760003560e01c806392d28b3d1161007157806392d28b3d1461012c578063a3b4919f1461015f578063c2fb26a61461018f578063d12164e4146101ad578063fa31de01146101cb578063fd10ebe5146101fb576100a9565b80631605c306146100ae57806354fd4d50146100b857806359b3f6e0146100d65780638209d312146100f2578063924324aa14610110575b600080fd5b6100b6610219565b005b6100c0610443565b6040516100cd9190610997565b60405180910390f35b6100f060048036038101906100eb9190610a58565b610467565b005b6100fa6104c9565b6040516101079190610ab1565b60405180910390f35b61012a60048036038101906101259190610b5d565b6104cf565b005b61014660048036038101906101419190610c11565b610668565b6040516101569493929190610cdd565b60405180910390f35b61017960048036038101906101749190610d29565b610770565b6040516101869190610db5565b60405180910390f35b6101976107a3565b6040516101a49190610997565b60405180910390f35b6101b56107c7565b6040516101c29190610ab1565b60405180910390f35b6101e560048036038101906101e09190610e06565b6107cd565b6040516101f29190610e89565b60405180910390f35b610203610942565b6040516102109190610ab1565b60405180910390f35b60006004600060025481526020019081526020016000206040518060800160405290816000820160009054906101000a900463ffffffff1663ffffffff1663ffffffff1681526020016000820160049054906101000a900473ffffffffffffffffffffffffffffffffffffffff1673ffffffffffffffffffffffffffffffffffffffff1673ffffffffffffffffffffffffffffffffffffffff1681526020016001820160009054906101000a900473ffffffffffffffffffffffffffffffffffffffff1673ffffffffffffffffffffffffffffffffffffffff1673ffffffffffffffffffffffffffffffffffffffff16815260200160028201805461031d90610ed3565b80601f016020809104026020016040519081016040528092919081815260200182805461034990610ed3565b80156103965780601f1061036b57610100808354040283529160200191610396565b820191906000526020600020905b81548152906001019060200180831161037957829003601f168201915b5050505050815250509050806040015173ffffffffffffffffffffffffffffffffffffffff166356d5d47582600001516103d38460200151610948565b84606001516040518463ffffffff1660e01b81526004016103f693929190610f04565b600060405180830381600087803b15801561041057600080fd5b505af1158015610424573d6000803e3d6000fd5b505050506002600081548092919061043b90610f71565b919050555050565b7f000000000000000000000000000000000000000000000000000000000000000081565b80600360008463ffffffff1663ffffffff16815260200190815260200160002060006101000a81548173ffffffffffffffffffffffffffffffffffffffff021916908373ffffffffffffffffffffffffffffffffffffffff1602179055505050565b60015481565b60405180608001604052808663ffffffff1681526020018573ffffffffffffffffffffffffffffffffffffffff1681526020018473ffffffffffffffffffffffffffffffffffffffff16815260200183838080601f016020809104026020016040519081016040528093929190818152602001838380828437600081840152601f19601f8201169050808301925050505050505081525060046000600154815260200190815260200160002060008201518160000160006101000a81548163ffffffff021916908363ffffffff16021790555060208201518160000160046101000a81548173ffffffffffffffffffffffffffffffffffffffff021916908373ffffffffffffffffffffffffffffffffffffffff16021790555060408201518160010160006101000a81548173ffffffffffffffffffffffffffffffffffffffff021916908373ffffffffffffffffffffffffffffffffffffffff1602179055506060820151816002019081610645919061118a565b509050506001600081548092919061065c90610f71565b91905055505050505050565b60046020528060005260406000206000915090508060000160009054906101000a900463ffffffff16908060000160049054906101000a900473ffffffffffffffffffffffffffffffffffffffff16908060010160009054906101000a900473ffffffffffffffffffffffffffffffffffffffff16908060020180546106ed90610ed3565b80601f016020809104026020016040519081016040528092919081815260200182805461071990610ed3565b80156107665780601f1061073b57610100808354040283529160200191610766565b820191906000526020600020905b81548152906001019060200180831161074957829003601f168201915b5050505050905084565b60036020528060005260406000206000915054906101000a900473ffffffffffffffffffffffffffffffffffffffff1681565b7f000000000000000000000000000000000000000000000000000000000000000081565b60025481565b600080600360008763ffffffff1663ffffffff16815260200190815260200160002060009054906101000a900473ffffffffffffffffffffffffffffffffffffffff169050600073ffffffffffffffffffffffffffffffffffffffff168173ffffffffffffffffffffffffffffffffffffffff1603610881576040517f08c379a0000000000000000000000000000000000000000000000000000000008152600401610878906112b9565b60405180910390fd5b8073ffffffffffffffffffffffffffffffffffffffff1663924324aa7f0000000000000000000000000000000000000000000000000000000000000000336108c88961096b565b88886040518663ffffffff1660e01b81526004016108ea959493929190611315565b600060405180830381600087803b15801561090457600080fd5b505af1158015610918573d6000803e3d6000fd5b5050505060008081548092919061092e90610f71565b91905055506000801b915050949350505050565b60005481565b60008173ffffffffffffffffffffffffffffffffffffffff1660001b9050919050565b60008160001c9050919050565b600063ffffffff82169050919050565b61099181610978565b82525050565b60006020820190506109ac6000830184610988565b92915050565b600080fd5b600080fd5b6109c581610978565b81146109d057600080fd5b50565b6000813590506109e2816109bc565b92915050565b600073ffffffffffffffffffffffffffffffffffffffff82169050919050565b6000610a13826109e8565b9050919050565b6000610a2582610a08565b9050919050565b610a3581610a1a565b8114610a4057600080fd5b50565b600081359050610a5281610a2c565b92915050565b60008060408385031215610a6f57610a6e6109b2565b5b6000610a7d858286016109d3565b9250506020610a8e85828601610a43565b9150509250929050565b6000819050919050565b610aab81610a98565b82525050565b6000602082019050610ac66000830184610aa2565b92915050565b610ad581610a08565b8114610ae057600080fd5b50565b600081359050610af281610acc565b92915050565b600080fd5b600080fd5b600080fd5b60008083601f840112610b1d57610b1c610af8565b5b8235905067ffffffffffffffff811115610b3a57610b39610afd565b5b602083019150836001820283011115610b5657610b55610b02565b5b9250929050565b600080600080600060808688031215610b7957610b786109b2565b5b6000610b87888289016109d3565b9550506020610b9888828901610ae3565b9450506040610ba988828901610ae3565b935050606086013567ffffffffffffffff811115610bca57610bc96109b7565b5b610bd688828901610b07565b92509250509295509295909350565b610bee81610a98565b8114610bf957600080fd5b50565b600081359050610c0b81610be5565b92915050565b600060208284031215610c2757610c266109b2565b5b6000610c3584828501610bfc565b91505092915050565b610c4781610a08565b82525050565b600081519050919050565b600082825260208201905092915050565b60005b83811015610c87578082015181840152602081019050610c6c565b60008484015250505050565b6000601f19601f8301169050919050565b6000610caf82610c4d565b610cb98185610c58565b9350610cc9818560208601610c69565b610cd281610c93565b840191505092915050565b6000608082019050610cf26000830187610988565b610cff6020830186610c3e565b610d0c6040830185610c3e565b8181036060830152610d1e8184610ca4565b905095945050505050565b600060208284031215610d3f57610d3e6109b2565b5b6000610d4d848285016109d3565b91505092915050565b6000819050919050565b6000610d7b610d76610d71846109e8565b610d56565b6109e8565b9050919050565b6000610d8d82610d60565b9050919050565b6000610d9f82610d82565b9050919050565b610daf81610d94565b82525050565b6000602082019050610dca6000830184610da6565b92915050565b6000819050919050565b610de381610dd0565b8114610dee57600080fd5b50565b600081359050610e0081610dda565b92915050565b60008060008060608587031215610e2057610e1f6109b2565b5b6000610e2e878288016109d3565b9450506020610e3f87828801610df1565b935050604085013567ffffffffffffffff811115610e6057610e5f6109b7565b5b610e6c87828801610b07565b925092505092959194509250565b610e8381610dd0565b82525050565b6000602082019050610e9e6000830184610e7a565b92915050565b7f4e487b7100000000000000000000000000000000000000000000000000000000600052602260045260246000fd5b60006002820490506001821680610eeb57607f821691505b602082108103610efe57610efd610ea4565b5b50919050565b6000606082019050610f196000830186610988565b610f266020830185610e7a565b8181036040830152610f388184610ca4565b9050949350505050565b7f4e487b7100000000000000000000000000000000000000000000000000000000600052601160045260246000fd5b6000610f7c82610a98565b91507fffffffffffffffffffffffffffffffffffffffffffffffffffffffffffffffff8203610fae57610fad610f42565b5b600182019050919050565b7f4e487b7100000000000000000000000000000000000000000000000000000000600052604160045260246000fd5b60008190508160005260206000209050919050565b60006020601f8301049050919050565b600082821b905092915050565b60006008830261104a7fffffffffffffffffffffffffffffffffffffffffffffffffffffffffffffffff8261100d565b611054868361100d565b95508019841693508086168417925050509392505050565b600061108761108261107d84610a98565b610d56565b610a98565b9050919050565b6000819050919050565b6110a18361106c565b6110b56110ad8261108e565b84845461101a565b825550505050565b600090565b6110ca6110bd565b6110d5818484611098565b505050565b5b818110156110f9576110ee6000826110c2565b6001810190506110db565b5050565b601f82111561113e5761110f81610fe8565b61111884610ffd565b81016020851015611127578190505b61113b61113385610ffd565b8301826110da565b50505b505050565b600082821c905092915050565b600061116160001984600802611143565b1980831691505092915050565b600061117a8383611150565b9150826002028217905092915050565b61119382610c4d565b67ffffffffffffffff8111156111ac576111ab610fb9565b5b6111b68254610ed3565b6111c18282856110fd565b600060209050601f8311600181146111f457600084156111e2578287015190505b6111ec858261116e565b865550611254565b601f19841661120286610fe8565b60005b8281101561122a57848901518255600182019150602085019450602081019050611205565b868310156112475784890151611243601f891682611150565b8355505b6001600288020188555050505b505050505050565b600082825260208201905092915050565b7f4d697373696e672072656d6f7465206d61696c626f7800000000000000000000600082015250565b60006112a360168361125c565b91506112ae8261126d565b602082019050919050565b600060208201905081810360008301526112d281611296565b9050919050565b82818337600083830152505050565b60006112f48385610c58565b93506113018385846112d9565b61130a83610c93565b840190509392505050565b600060808201905061132a6000830188610988565b6113376020830187610c3e565b6113446040830186610c3e565b81810360608301526113578184866112e8565b9050969550505050505056fea2646970667358221220a0eb829d49ab6faa93ace016f41bb788ddc8142e3aa4fc913e910eb64390208464736f6c63430008130033",
  "linkReferences": {},
  "deployedLinkReferences": {}
}