{
  "_format": "hh-sol-artifact-1",
  "contractName": "TestRecipient",
  "sourceName": "contracts/TestRecipient.sol",
  "abi": [
    {
      "inputs": [],
      "name": "data",
      "outputs": [
        {
          "internalType": "bytes",
          "name": "",
          "type": "bytes"
        }
      ],
      "stateMutability": "view",
      "type": "function"
    },
    {
      "inputs": [
        {
          "internalType": "uint32",
          "name": "",
          "type": "uint32"
        },
        {
          "internalType": "bytes32",
          "name": "_sender",
          "type": "bytes32"
        },
        {
          "internalType": "bytes",
          "name": "_data",
          "type": "bytes"
        }
      ],
      "name": "handle",
      "outputs": [],
      "stateMutability": "nonpayable",
      "type": "function"
    },
    {
      "inputs": [],
      "name": "sender",
      "outputs": [
        {
          "internalType": "bytes32",
          "name": "",
          "type": "bytes32"
        }
      ],
      "stateMutability": "view",
      "type": "function"
    }
  ],
  "bytecode": "0x608060405234801561001057600080fd5b506106d8806100206000396000f3fe608060405234801561001057600080fd5b50600436106100415760003560e01c806356d5d4751461004657806367e404ce1461006257806373d4a13a14610080575b600080fd5b610060600480360381019061005b9190610232565b61009e565b005b61006a6100bd565b60405161007791906102b5565b60405180910390f35b6100886100c3565b6040516100959190610360565b60405180910390f35b826000819055508181600191826100b69291906105d2565b5050505050565b60005481565b600180546100d0906103eb565b80601f01602080910402602001604051908101604052809291908181526020018280546100fc906103eb565b80156101495780601f1061011e57610100808354040283529160200191610149565b820191906000526020600020905b81548152906001019060200180831161012c57829003601f168201915b505050505081565b600080fd5b600080fd5b600063ffffffff82169050919050565b6101748161015b565b811461017f57600080fd5b50565b6000813590506101918161016b565b92915050565b6000819050919050565b6101aa81610197565b81146101b557600080fd5b50565b6000813590506101c7816101a1565b92915050565b600080fd5b600080fd5b600080fd5b60008083601f8401126101f2576101f16101cd565b5b8235905067ffffffffffffffff81111561020f5761020e6101d2565b5b60208301915083600182028301111561022b5761022a6101d7565b5b9250929050565b6000806000806060858703121561024c5761024b610151565b5b600061025a87828801610182565b945050602061026b878288016101b8565b935050604085013567ffffffffffffffff81111561028c5761028b610156565b5b610298878288016101dc565b925092505092959194509250565b6102af81610197565b82525050565b60006020820190506102ca60008301846102a6565b92915050565b600081519050919050565b600082825260208201905092915050565b60005b8381101561030a5780820151818401526020810190506102ef565b60008484015250505050565b6000601f19601f8301169050919050565b6000610332826102d0565b61033c81856102db565b935061034c8185602086016102ec565b61035581610316565b840191505092915050565b6000602082019050818103600083015261037a8184610327565b905092915050565b600082905092915050565b7f4e487b7100000000000000000000000000000000000000000000000000000000600052604160045260246000fd5b7f4e487b7100000000000000000000000000000000000000000000000000000000600052602260045260246000fd5b6000600282049050600182168061040357607f821691505b602082108103610416576104156103bc565b5b50919050565b60008190508160005260206000209050919050565b60006020601f8301049050919050565b600082821b905092915050565b60006008830261047e7fffffffffffffffffffffffffffffffffffffffffffffffffffffffffffffffff82610441565b6104888683610441565b95508019841693508086168417925050509392505050565b6000819050919050565b6000819050919050565b60006104cf6104ca6104c5846104a0565b6104aa565b6104a0565b9050919050565b6000819050919050565b6104e9836104b4565b6104fd6104f5826104d6565b84845461044e565b825550505050565b600090565b610512610505565b61051d8184846104e0565b505050565b5b818110156105415761053660008261050a565b600181019050610523565b5050565b601f821115610586576105578161041c565b61056084610431565b8101602085101561056f578190505b61058361057b85610431565b830182610522565b50505b505050565b600082821c905092915050565b60006105a96000198460080261058b565b1980831691505092915050565b60006105c28383610598565b9150826002028217905092915050565b6105dc8383610382565b67ffffffffffffffff8111156105f5576105f461038d565b5b6105ff82546103eb565b61060a828285610545565b6000601f8311600181146106395760008415610627578287013590505b61063185826105b6565b865550610699565b601f1984166106478661041c565b60005b8281101561066f5784890135825560018201915060208501945060208101905061064a565b8683101561068c5784890135610688601f891682610598565b8355505b6001600288020188555050505b5050505050505056fea2646970667358221220fa2bc12b3b035be50344ac522ba75ea3bdb186008231f6e59c7384c30a635d3664736f6c63430008130033",
  "linkReferences": {},
  "deployedLinkReferences": {}
}